:020000040800F2
:1000000000800120A9680008516800085F680008A6
:10001000676800086F680008776800080000000043
:100020000000000000000000000000007F680008E1
:100030008D68000800000000F56800089B68000853
:10004000F5680008F5680008F5680008F56800081C
:10005000F5680008F5680008F5680008F56800080C
:10006000F5680008F5680008F5680008F5680008FC
:10007000F5680008F5680008F5680008F5680008EC
:10008000F5680008F5680008F56800080000000041
:10009000000000000000000000000000F5680008FB
:1000A000F568000835530008F5680008FD5200089F
:1000B000F5680008F5680008F5680008F5680008AC
:1000C000F5680008F5680008F5680008F56800089C
:1000D000F5680008F5680008F568000800000000F1
:1000E000F5680008F5680008F568000800000000E1
:1000F000000000000000000000000000F56800089B
:1001000000000000F5680008F5680008F5680008C0
:1001100000000000000000000000000000000000DF
:10012000F5680008F5680008F5680008F56800083B
:10013000F56800080000000000000000000000005A
:10014000000000000000000000000000F56800084A
:10015000F5680008F5680008F5680008F56800080B
:10016000F5680008F56800080000000000000000C5
:10017000000000000000000000000000000000007F
:1001800000000000F568000800000000000000000A
:04019000F568000806
:100198000348044B834202D0034B03B1184770470E
:1001A8006001002060010020000000000548064BA7
:1001B8001B1AD90F01EBA301491002D0034B03B15D
:1001C800184770476001002060010020000000000F
:1001D80010B5064C237843B9FFF7DAFF044B13B187
:1001E8000448AFF300800123237010BD6001002094
:1001F80000000000F868000808B5044B1BB104496A
:100208000448AFF30080BDE80840CFE700000000D5
:1002180064010020F868000880B582B000AF7860FB
:10022800002300227968002000F0C8F80346184629
:100238000837BD4680BD000080B582B000AF174AC0
:10024800174BD31A9B103B6000237B6007E0144ACE
:100258007B6852F8233098477B6801337B607A6863
:100268003B689A42F3D306F043FB0E4A0E4BD31A6F
:100278009B103B6000237B6007E00B4A7B6852F8C9
:10028800233098477B6801337B607A683B689A42E1
:10029800F3D300BF00BF0837BD4680BDB86A000869
:1002A800B86A0008C06A0008B86A000880B582B059
:1002B80000AF0D4A0D4BD31A9B103B603B687B6027
:1002C80008E07B68013B094A52F8233098477B686D
:1002D800013B7B607B68002BF3D106F00FFB00BF6E
:1002E8000837BD4680BD00BFC46A0008C06A000860
:1002F80080B483B000AF786000BF0C37BD465DF8AE
:10030800047B704780B483B000AF786000BF0C37BF
:10031800BD465DF8047B704780B483B000AF786059
:1003280000BF0C37BD465DF8047B704780B483B0CE
:1003380000AF786000BF0C37BD465DF8047B70479E
:1003480080B483B000AF786000BF0C37BD465DF85D
:10035800047B704780B483B000AF786000BF0C376F
:10036800BD465DF8047B704780B483B000AF786009
:10037800012318460C37BD465DF8047B704780B4EE
:1003880083B000AF7860012318460C37BD465DF88E
:10039800047B704780B483B000AF786000BF0C372F
:1003A800BD465DF8047B704780B483B000AF7860C9
:1003B80000BF0C37BD465DF8047B704790B587B029
:1003C80000AFF860B9607A603B60294B1B6818463B
:1003D800FFF7C0FF274B1C68002C02D1264C254B89
:1003E8001C6063681F2B07DD214B1B681846FFF74D
:1003F800DBFF4FF0FF3336E0FB68002B26D004F11B
:1004080088037B6162687B69796843F822107B699D
:10041800D3F800316268012101FA02F21A437B69BC
:10042800C3F8002162687B692032396843F82210DA
:10043800FB68022B0AD17B69D3F804316268012179
:1004480001FA02F21A437B69C3F8042163685A1C53
:1004580062600233BA6844F82320054B1B681846CB
:10046800FFF7A2FF002318461C37BD4690BD00BF0A
:10047800240100200C0300207C01002080B500AF7F
:10048800034B002B02D00348FFF7C6FE00BF80BD18
:1004980000000000B5020008F0B587B000AF786032
:1004A8003960354B1B681846FFF754FF334B1C68FF
:1004B800324B7B61002C55D004F1880663685D1EC1
:1004C8004DE00123AB403B613B68002B08D0002E78
:1004D80041D005F1200356F823303A689A423AD1C0
:1004E800AB1C54F82330FB606368013B9D4203D189
:1004F8006368013B636003E0AB1C002244F82320DF
:10050800FB68002B29D06368BB60002E05D0D6F8A5
:1005180000213B691340002B02D1FB68984711E08A
:10052800D6F804213B691340002B06D156F8252044
:10053800FB6811467868984704E056F82520FB6860
:10054800104698476368BA689A42AFD17B691B68BE
:100558009C4203D0AAE700BF00E000BF013D002D88
:10056800AFDA00BF044B1B681846FFF71DFF00BF3A
:100578001C37BD46F0BD00BF240100200C0300203D
:1005880080B400AF034B1B681846BD465DF8047B7A
:10059800704700BF2001002081F0004102E000BF49
:1005A80083F0004330B54FEA41044FEA430594EA2B
:1005B800050F08BF90EA020F1FBF54EA000C55EA66
:1005C800020C7FEA645C7FEA655C00F0E2804FEA37
:1005D8005454D4EB5555B8BF6D420CDD2C4480EA19
:1005E800020281EA030382EA000083EA010180EA49
:1005F800020281EA0303362D88BF30BD11F0004F97
:100608004FEA01314FF4801C4CEA113102D04042CC
:1006180061EB410113F0004F4FEA03334CEA133307
:1006280002D0524263EB430394EA050F00F0A7801F
:10063800A4F10104D5F1200E0DDB02FA0EFC22FA1A
:1006480005F2801841F1000103FA0EF2801843FA0E
:1006580005F359410EE0A5F120050EF1200E012AFF
:1006680003FA0EFC28BF4CF0020C43FA05F3C0183D
:1006780051EBE37101F0004507D54FF0000EDCF1B6
:10068800000C7EEB00006EEB0101B1F5801F1BD35F
:10069800B1F5001F0CD349085FEA30004FEA3C0C63
:1006A80004F101044FEA445212F5800F80F09A8059
:1006B800BCF1004F08BF5FEA500C50F1000041EB5D
:1006C800045141EA050130BD5FEA4C0C404141EB61
:1006D8000101013C28BFB1F5801FE9D291F0000F5C
:1006E80004BF01460020B1FA81F308BF2033A3F10B
:1006F8000B03B3F120020CDA0C3208DD02F1140C02
:10070800C2F10C0201FA0CF021FA02F10CE002F13C
:100718001402D8BFC2F1200C01FA02F120FA0CFC35
:10072800DCBF41EA0C019040E41AA2BF01EB04517E
:10073800294330BD6FEA04041F3C1CDA0C340EDC7C
:1007480004F11404C4F1200220FA04F001FA02F3BF
:1007580040EA030021FA04F345EA030130BDC4F17D
:100768000C04C4F1200220FA02F001FA04F340EA72
:100778000300294630BD21FA04F0294630BD94F023
:10078800000F83F4801306BF81F480110134013D0A
:100798004EE77FEA645C18BF7FEA655C29D094EA7B
:1007A800050F08BF90EA020F05D054EA000C04BFF9
:1007B8001946104630BD91EA030F1EBF00210020E4
:1007C80030BD5FEA545C05D14000494128BF41F083
:1007D800004130BD14F580043CBF01F5801130BDE7
:1007E80001F0004545F0FE4141F470014FF0000072
:1007F80030BD7FEA645C1ABF194610467FEA655C23
:100808001CBF0B46024650EA013406BF52EA0335C4
:1008180091EA030F41F4002130BD00BF90F0000FB2
:1008280004BF0021704730B54FF4806404F13204EE
:100838004FF000054FF0000150E700BF90F0000FA7
:1008480004BF0021704730B54FF4806404F13204CE
:1008580010F0004548BF40424FF000013EE700BF9E
:1008680042004FEAE2014FEA31014FEA02701FBF2E
:1008780012F07F4393F07F4F81F06051704732F060
:100888007F4208BF704793F07F4F04BF41F40021B7
:10089800704730B54FF4607401F0004521F0004115
:1008A8001CE700BF50EA010208BF704730B54FF09F
:1008B80000050AE050EA010208BF704730B511F0A0
:1008C800004502D5404261EB41014FF4806404F1D8
:1008D80032045FEA915C3FF4D8AE4FF003025FEA5E
:1008E800DC0C18BF03325FEADC0C18BF033202EBE2
:1008F800DC02C2F1200300FA03FC20FA02F001FA3C
:1009080003FE40EA0E0021FA02F11444BDE600BFDE
:1009180070B54FF0FF0C4CF4E06C1CEA11541DBF8D
:100928001CEA135594EA0C0F95EA0C0F00F0DEF858
:100938002C4481EA030621EA4C5123EA4C5350EA3D
:10094800013518BF52EA033541F4801143F480138E
:1009580038D0A0FB02CE4FF00005E1FB02E506F01F
:100968000042E0FB03E54FF00006E1FB03569CF074
:10097800000F18BF4EF0010EA4F1FF04B6F5007F7A
:1009880064F5407404D25FEA4E0E6D4146EB0606EC
:1009980042EAC62141EA55514FEAC52040EA5E5075
:1009A8004FEACE2EB4F1FD0C88BFBCF5E06F1ED81F
:1009B800BEF1004F08BF5FEA500E50F1000041EB56
:1009C800045170BD06F0004646EA010140EA020003
:1009D80081EA0301B4EB5C04C2BFD4EB0C0541EA25
:1009E800045170BD41F480114FF0000E013C00F33A
:1009F800AB8014F1360FDEBF002001F0004170BD5E
:100A0800C4F10004203C35DA0C341BDC04F1140476
:100A1800C4F1200500FA05F320FA04F001FA05F202
:100A280040EA020001F0004221F0004110EBD370CF
:100A380021FA04F642EB06015EEA430E08BF20EAFB
:100A4800D37070BDC4F10C04C4F1200500FA04F39E
:100A580020FA05F001FA04F240EA020001F0004130
:100A680010EBD37041F100015EEA430E08BF20EAA3
:100A7800D37070BDC4F1200500FA05F24EEA020EEB
:100A880020FA04F301FA05F243EA020321FA04F01A
:100A980001F0004121FA04F220EA020000EBD370D1
:100AA8005EEA430E08BF20EAD37070BD94F0000FD1
:100AB8000FD101F00046400041EB010111F4801F05
:100AC80008BF013CF7D041EA060195F0000F18BFB6
:100AD800704703F00046520043EB030313F4801FF2
:100AE80008BF013DF7D043EA0603704794EA0C0FAC
:100AF8000CEA135518BF95EA0C0F0CD050EA4106C2
:100B080018BF52EA4306D1D181EA030101F000413E
:100B18004FF0000070BD50EA410606BF1046194666
:100B280052EA430619D094EA0C0F02D150EA013672
:100B380013D195EA0C0F05D152EA03361CBF1046B3
:100B480019460AD181EA030101F0004141F0FE4152
:100B580041F470014FF0000070BD41F0FE4141F4D6
:100B6800780170BD70B54FF0FF0C4CF4E06C1CEAD6
:100B780011541DBF1CEA135594EA0C0F95EA0C0F8B
:100B880000F0A7F8A4EB050481EA030E52EA033546
:100B98004FEA013100F088804FEA03334FF0805567
:100BA80045EA131343EA12634FEA022245EA111594
:100BB80045EA10654FEA00260EF000419D4208BF45
:100BC800964244F1FD0404F5407402D25B084FEAF2
:100BD8003202B61A65EB03055B084FEA32024FF49E
:100BE80080104FF4002CB6EB020E75EB030E22BFFB
:100BF800B61A754640EA0C005B084FEA3202B6EBBB
:100C0800020E75EB030E22BFB61A754640EA5C0069
:100C18005B084FEA3202B6EB020E75EB030E22BFF9
:100C2800B61A754640EA9C005B084FEA3202B6EBFA
:100C3800020E75EB030E22BFB61A754640EADC00B9
:100C480055EA060E18D04FEA051545EA16754FEA1B
:100C580006164FEAC30343EA52734FEAC2025FEA39
:100C68001C1CC0D111F4801F0BD141EA00014FF0C8
:100C780000004FF0004CB6E711F4801F04BF014399
:100C88000020B4F1FD0C88BFBCF5E06F3FF6AFAEB5
:100C9800B5EB030C04BFB6EB020C5FEA500C50F145
:100CA800000041EB045170BD0EF0004E4EEA1131C8
:100CB80014EB5C04C2BFD4EB0C0541EA045170BDCF
:100CC80041F480114FF0000E013C90E645EA060E13
:100CD8008DE60CEA135594EA0C0F08BF95EA0C0F41
:100CE8003FF43BAF94EA0C0F0AD150EA01347FF489
:100CF80034AF95EA0C0F7FF425AF104619462CE760
:100D080095EA0C0F06D152EA03353FF4FDAE1046C2
:100D1800194622E750EA410618BF52EA43067FF413
:100D2800C5AE50EA41047FF40DAF52EA43057FF4A3
:100D3800EBAE12E74FF0FF3C06E000BF4FF0010CAE
:100D480002E000BF4FF0010C4DF804CD4FEA410C12
:100D58007FEA6C5C4FEA430C18BF7FEA6C5C1BD0DF
:100D680001B050EA410C0CBF52EA430C91EA030F60
:100D780002BF90EA020F0020704710F1000F91EABD
:100D8800030F58BF994208BF90422CBFD8176FEA8B
:100D9800E37040F0010070474FEA410C7FEA6C5C59
:100DA80002D150EA013C07D14FEA430C7FEA6C5C60
:100DB800D6D152EA033CD3D05DF8040B704700BF8C
:100DC8008446104662468C461946634600E000BFDA
:100DD80001B5FFF7B7FF002848BF10F1000F01BDAC
:100DE8004DF808EDFFF7F4FF0CBF012000205DF877
:100DF80008FB00BF4DF808EDFFF7EAFF34BF0120FC
:100E080000205DF808FB00BF4DF808EDFFF7E0FF94
:100E180094BF012000205DF808FB00BF4DF808EDE5
:100E2800FFF7CEFF94BF012000205DF808FB00BF4C
:100E38004DF808EDFFF7C4FF34BF012000205DF82E
:100E480008FB00BF4FEA410C7FEA6C5C02D150EA14
:100E5800013C0AD14FEA430C7FEA6C5C02D152EAAA
:100E6800033C02D14FF0000070474FF0010070477B
:100E78004FEA410212F5001215D211D56FF47873BA
:100E8800B3EB625212D94FEAC12343F0004343EA5D
:100E9800505311F0004F23FA02F018BF4042704738
:100EA8004FF00000704750EA013005D111F00040C2
:100EB80008BF6FF0004070474FF00000704700BF58
:100EC8004FEA4102B2F1E04324BFB3F5001CDCF164
:100ED800FE5C0DD901F0004C4FEAC0024CEA50709C
:100EE800B2F1004F40EB830008BF20F001007047CB
:100EF80011F0804F21D113F13872BCBF01F00040CE
:100F0800704741F480114FEA5252C2F11802C2F1FF
:100F1800200C10FA0CF320FA02F018BF40F0010080
:100F28004FEAC1234FEAD32303FA0CFC40EA0C0032
:100F380023FA02F34FEA4303CCE77FEA625307D16F
:100F480050EA01331EBF4FF0FE4040F440007047A6
:100F580001F0004040F0FE4040F40000704700BF40
:100F680080B584B000AF87ED000B97ED000B00F063
:100F7800A3FD87ED020BD7E90023D7E90001FFF7AE
:100F880061FF0346002B02D097ED027B1CE097ED32
:100F9800000B00F08FFB51EC100B4FF000020E4BD2
:100FA800FFF746FF0346002B0CD0FFF7E9FA03468C
:100FB80021221A60094800F0BBFBB0EE407AF0EE3F
:100FC800607A01E097ED027BB0EE470AF0EE670A1F
:100FD8001037BD4680BD00BF0000F03F1069000813
:100FE80080B586B000AF87ED020B87ED001B97ED4B
:100FF800001B97ED020B01F001F987ED040BD7E90F
:101008000023D7E90001FFF71DFF0346002B02D09C
:10101800D7E904237FE04FF000024FF00003D7E93F
:101028000201FFF7DDFE0346002B28D04FF0000237
:101038004FF00003D7E90001FFF7D2FE0346002B6B
:1010480003D04FF00002384B65E097ED000B00F03D
:1010580055FB0346002B0FD04FF000024FF0000362
:10106800D7E90001FFF7C6FE0346002B04D0FFF7BF
:1010780087FA034622221A60D7E904234BE097ED4A
:10108800040B00F03BFB0346002B24D197ED020B29
:1010980000F034FB0346002B1DD097ED000B00F049
:1010A8002DFB0346002B16D0D7E90423D7E904010A
:1010B800FFF7C8FE0346002B05D0FFF761FA034689
:1010C80021221A6004E0FFF75BFA034622221A6025
:1010D800D7E904231FE04FF000024FF00003D7E9DF
:1010E8000401FFF77DFE0346002B12D097ED020B9B
:1010F80000F004FB0346002B0BD097ED000B00F02B
:10110800FDFA0346002B04D0FFF73AFA03462222E1
:101118001A60D7E9042343EC172BB0EE470AF0EE28
:10112800670A1837BD4680BD0000F03F80B584B01F
:1011380000AF87ED000B97ED000B00F011FB87ED7A
:10114800020BD7E90023D7E90001FFF77BFE03462E
:10115800002B02D0D7E902231EE04FF000024FF027
:101168000003D7E90001FFF745FE0346002B11D025
:10117800FFF706FA034621221A604FF000024FF0EB
:1011880000034FF000004FF00001FFF7EBFC0246B0
:101198000B4601E0D7E9022343EC172BB0EE470AD0
:1011A800F0EE670A1037BD4680BD00000000000061
:1011B8002DE9B04F9AB000AF87ED060BD7E90623AB
:1011C800C7E90A23FB6A3B663B6E23F00043FB65D5
:1011D800FB6D794A93423BDDD7E90623C7E908232B
:1011E8003B6A7B63FB6D754A934206DCFB6D734A71
:1011F80093420DD17B6B002B0AD0D7E9060102463A
:101208000B46FFF7CFF902460B46C7E9042314E261
:101218003B6E002B0CDD62A1D1E9000162A3D3E98A
:101228000023FFF7BFF902460B46C7E9042304E28F
:101238005BA3D3E90023104683F000415AA3D3E906
:101248000023FFF7ADF902460B46C7E90423F4E192
:10125800FB6D5B4A93421FDCFB6D5A4A934217DCD5
:1012680053A1D1E90001D7E90623FFF79BF902460C
:101278000B46104619464FF00002534BFFF7D8FDB6
:101288000346002B04D097ED067B87ED047BD4E161
:101298004FF0FF337B66AEE097ED060B00F00AFADD
:1012A80087ED060BFB6D494A93424ADCFB6D484AC1
:1012B800934227DC00237B66D7E9060102460B46EA
:1012C800FFF770F902460B46104619464FF0000228
:1012D8003D4BFFF765F902460B4614461D464FF095
:1012E80000024FF08043D7E90601FFF75BF9024699
:1012F8000B4620462946FFF735FC02460B46C7E950
:10130800062378E001237B664FF000022E4BD7E9D5
:101318000601FFF745F902460B4614461D464FF0F5
:1013280000002949D7E90623FFF73CF902460B4696
:1013380020462946FFF716FC02460B46C7E9062356
:1013480059E0FB6D234A934248DA02237B664FF04B
:101358000002214BD7E90601FFF722F902460B46A6
:1013680014461D464FF000021B4BD7E90601FFF754
:10137800CFFA02460B46104619464FF00002124BB0
:10138800FFF710F902460B4620462946FFF7EAFB0D
:1013980002460B46C7E906232DE000BFAFF30080E5
:1013A800182D4454FB21F93F075C143326A6913CC1
:1013B8009C7500883CE4377EFFFF0F440000F07FF7
:1013C800FFFFDB3FFFFF1F3E0000F03FFFFFF23F44
:1013D800FFFFE53F008003400000F83F03237B66E2
:1013E800D7E906234FF00000AF49FFF7BBFB0246E1
:1013F8000B46C7E90623D7E90623D7E90601FFF715
:1014080087FA02460B46C7E91423D7E91423D7E91C
:101418001401FFF77DFA02460B46C7E912230FF2C3
:10142800302BDBE900AB9FED8C7B87ED027B9FEDDA
:101438008C7B87ED007B0FF23029D9E900898CA5D8
:10144800D5E900458CA1D1E90001D7E91223FFF7BE
:101458005FFA02460B4620462946FFF7A3F80246E4
:101468000B4610461946D7E91223FFF751FA0246F0
:101478000B4640464946FFF795F802460B4610468C
:101488001946D7E91223FFF743FA02460B46D7E974
:101498000001FFF787F802460B4610461946D7E9C0
:1014A8001223FFF735FA02460B46D7E90201FFF788
:1014B80079F802460B4610461946D7E91223FFF77A
:1014C80027FA02460B4650465946FFF76BF8024684
:1014D8000B46D7E91401FFF71BFA02460B46C7E98A
:1014E80010230FF29C19D9E900890FF29C1BDBE944
:1014F80000AB9FED677B87ED027B67A5D5E90045CB
:1015080067A1D1E90001D7E91223FFF701FA0246E2
:101518000B4620462946FFF745F802460B4610467B
:101528001946D7E91223FFF7F3F902460B46D7E924
:101538000201FFF737F802460B4610461946D7E96D
:101548001223FFF7E5F902460B4650465946FFF7C6
:1015580029F802460B4610461946D7E91223FFF729
:10156800D7F902460B4640464946FFF71BF80246A4
:101578000B46D7E91201FFF7CBF902460B46C7E93C
:101588000E237B6E002B18DAD7E90E23D7E910015A
:10159800FFF708F802460B4610461946D7E9062316
:1015A800FFF7B6F902460B46D7E90601FEF7F8FF42
:1015B80002460B46C7E904233FE03C4A7B6EDB004A
:1015C8001344D3E90045D7E90E23D7E91001FEF704
:1015D800E9FF02460B4610461946D7E90623FFF7EE
:1015E80097F902460B4610461946314A7B6EDB00D6
:1015F8001344D3E90023FEF7D3FF02460B461046F7
:101608001946D7E90623FEF7CBFF02460B462046CC
:101618002946FEF7C5FF02460B46C7E914233B6E71
:10162800002B06DA3B6D3B617B6D83F000437B61E9
:1016380003E097ED147B87ED047B97ED047BB0EE18
:10164800470AF0EE670A6837BD46BDE8B08F00BFAD
:101658000D5555555555D53FFF8300922449C23F36
:101668006E204CC5CD45B73F513DD0A0660DB13F6A
:10167800EB0D76244B7BA93F11DA22E33AAD903F7C
:10168800C4EB98999999C9BF711623FEC671BCBF5E
:101698006D9A74AFF2B0B3BF9AFDDE522DDEADBFC6
:1016A8002F6C6A2C44B4A2BF0000F0BF1869000870
:1016B8003869000880B489B000AF87ED000BD7E91E
:1016C8000023C7E904237B69FB61D7E90023C7E945
:1016D8000223FB6923F00043FB60D7E90223C7E933
:1016E8000023D7E9002343EC172BB0EE470AF0EEAE
:1016F800670A2437BD465DF8047B704780B487B01D
:1017080000AF87ED000BD7E90023C7E90223FB6888
:101718007B617B6923F0004303F1004303F58013E9
:10172800DB0F18461C37BD465DF8047B7047000088
:1017380080B485B000AF78604FF00002074BC7E96E
:101748000223D7E9022343EC172BB0EE470AF0EE49
:10175800670A1437BD465DF8047B70470000F87FC0
:10176800B0B594B000AF87ED000B4FF00043BB62FB
:10177800D7E90023C7E904237B69FB633B697B64E2
:10178800FA6B6A4B1340694A934210D1D7E9002398
:10179800D7E90001FFF7BCF802460B461046194688
:1017A800D7E90023FEF7FEFE02460B4676E1FB6B07
:1017B800002B27DCBB6ADA43FB6B13401A467B6CB1
:1017C8001343002B02D1D7E9002367E1FB6B002B01
:1017D80018DAD7E90023D7E90001FEF7E1FE02464F
:1017E8000B4614461D46D7E90023D7E90001FEF74A
:1017F800D7FE02460B4620462946FFF7B3F90246B4
:101808000B464BE1FB6B1B153B633B6B002B2ED14F
:101818000AE03B6B153B3B637B6CDA0AFB6B1343BB
:10182800FB637B6C5B057B64FB6B002BF1D00023B7
:10183800FB6205E0FB6B5B00FB63FB6A0133FB6249
:10184800FB6B03F48013002BF4D0FB6A013B3A6B6B
:10185800D31A3B63FB6AC3F120037A6CDA40FB6B53
:101868001343FB637A6CFB6A02FA03F37B643B6BFA
:10187800A3F2FF333B63FB6BC3F3130343F48013FF
:10188800FB633B6B03F00103002B0BD0BA6A7B6C44
:101898001340DA0FFB6B1A44FB6B1344FB637B6C3E
:1018A8005B007B643B6B5B103B63BA6A7B6C1340E9
:1018B800DA0FFB6B1A44FB6B1344FB637B6C5B0016
:1018C8007B640023BB640023BB63BB6B3B643B6C42
:1018D8007B634FF40013FB6422E0BA6BFB6C134488
:1018E800BB61BA69FB6B9A420BDCBA69FB6C1344A7
:1018F800BB63FA6BBB69D31AFB637A6BFB6C13444B
:101908007B63BA6A7B6C1340DA0FFB6B1A44FB6B80
:101918001344FB637B6C5B007B64FB6C5B08FB64C0
:10192800FB6C002BD9D1BB6AFB6447E00000F07F59
:10193800BA6CFB6C1344FB61BB6BBB61BA69FB6B94
:101948009A4207DBBA69FB6B9A4228D1FA697B6C29
:101958009A4224D8FA69FB6C1344BB64BA6AFB69DF
:101968001A40BB6A9A4207D1BA6ABB6C1340002B73
:1019780002D1BB6B0133BB63FA6BBB69D31AFB6340
:101988007A6CFB699A4202D2FB6B013BFB637A6C6F
:10199800FB69D31A7B643A6CFB6C13443B64BA6AE8
:1019A8007B6C1340DA0FFB6B1A44FB6B1344FB632D
:1019B8007B6C5B007B64FB6C5B08FB64FB6C002B43
:1019C800B6D1FA6B7B6C1343002B45D0384BD3E967
:1019D8000001384BD3E90023FEF7E2FD02460B462F
:1019E800C7E90823324BD3E90023D7E90801FFF7F9
:1019F80015FA0346002B2FD02D4BD3E900012D4BB0
:101A0800D3E90023FEF7CEFD02460B46C7E90823BB
:101A18003B6CB3F1FF3F05D100233B647B6B013383
:101A28007B6319E0224BD3E90023D7E90801FFF7CC
:101A3800FFF90346002B0AD03B6C13F1020F02D1C9
:101A48007B6B01337B633B6C02333B6404E03B6C90
:101A5800013323F001033B647B6B5B1003F17F537D
:101A680003F50013FB633B6C5B087B647B6B03F043
:101A78000103002B03D0BB6A7A6C13437B643B6B76
:101A88001B05FA6B1344FB63FB6BFB607B6CBB6051
:101A9800D7E90223C7E90823D7E9082343EC172B22
:101AA800B0EE470AF0EE670A5037BD46B0BD00BF3A
:101AB80028010020300100202DE9B04F9AB000AF76
:101AC80087ED000BD7E90023C7E90623FB69FB650F
:101AD800FB6D23F00043BB65BB6DB54A934247DD00
:101AE800D7E90023C7E904233B697B62BB6D03F197
:101AF800404303F580131A467B6A1343002B1CD11D
:101B080091A1D1E90001D7E90023FEF701FF0246C0
:101B18000B4614461D468EA1D1E90001D7E90023E2
:101B2800FEF7F6FE02460B4620462946FEF73AFD2A
:101B380002460B4614461D4612E3D7E90023D7E9AF
:101B48000001FEF72DFD02460B4614461D46D7E957
:101B58000023D7E90001FEF723FD02460B46204685
:101B68002946FEF7FFFF02460B4614461D46F7E2DC
:101B7800BB6D904A934200F32181BB6DB3F1795F4D
:101B880016DA75A1D1E90001D7E90023FEF70AFDAD
:101B980002460B46104619464FF00002864BFFF7E7
:101BA80047F90346002B00F00981D7E90045D7E241
:101BB800D7E90023D7E90001FEF7AAFE02460B4643
:101BC800C7E9182366A1D1E90001D7E91823FEF770
:101BD8009FFE02460B461046194663A3D3E900232D
:101BE800FEF7E0FC02460B4610461946D7E91823D3
:101BF800FEF78EFE02460B46104619465CA3D3E953
:101C08000023FEF7CFFC02460B4610461946D7E9DB
:101C18001823FEF77DFE02460B461046194656A3CA
:101C2800D3E90023FEF7BEFC02460B4610461946D0
:101C3800D7E91823FEF76CFE02460B4610461946F4
:101C48004FA3D3E90023FEF7ADFC02460B4610462E
:101C58001946D7E91823FEF75BFE02460B461046E5
:101C6800194649A3D3E90023FEF79CFC02460B461C
:101C7800D7E91801FEF74CFE02460B46C7E91423C4
:101C880043A1D1E90001D7E91823FEF741FE024636
:101C98000B461046194640A3D3E90023FEF782FC01
:101CA80002460B4610461946D7E91823FEF730FEC0
:101CB80002460B461046194639A3D3E90023FEF71E
:101CC80071FC02460B4610461946D7E91823FEF761
:101CD8001FFE02460B461046194633A3D3E90023DC
:101CE800FEF760FC02460B4610461946D7E9182352
:101CF800FEF70EFE02460B46104619464FF000024C
:101D08002D4BFEF74FFC02460B46C7E91223D7E9D5
:101D18001223D7E91401FEF725FF02460B46C7E94F
:101D28001023D7E91023D7E90001FEF7F1FD024699
:101D38000B4610461946D7E90023FEF733FC024646
:101D48000B4614461D460BE2182D4454FB21F93F5F
:101D5800075C143326A6913C9C7500883CE4377ECA
:101D680009F7FD0DE13D023F88B20175E0EF493FFB
:101D78003B8F68B52882A4BF5544880E55C1C93F1A
:101D88007D6FEB0312D6D4BF555555555555C53FF4
:101D980082922EB1C5B8B33F59018D1B6C06E6BFC0
:101DA800C88A599CE52A00404B2D8A1C273A03C053
:101DB800FFFFEF3FFFFFDF3F0000F03F4FF000085D
:101DC800DFF8689297ED000BFFF774FC53EC102BCB
:101DD80040464946FEF7E4FB02460B46C7E9102396
:101DE8004FF00002904BD7E91001FEF791FD024633
:101DF8000B46C7E9182374A1D1E90001D7E91823D4
:101E0800FEF786FD02460B461046194670A3D3E935
:101E18000023FEF7C7FB02460B4610461946D7E9D2
:101E28001823FEF775FD02460B46104619466AA3AD
:101E3800D3E90023FEF7B6FB02460B4610461946C7
:101E4800D7E91823FEF764FD02460B4610461946EB
:101E580063A3D3E90023FEF7A5FB02460B46104611
:101E68001946D7E91823FEF753FD02460B461046DC
:101E780019465DA3D3E90023FEF794FB02460B46FF
:101E880010461946D7E91823FEF742FD02460B46CD
:101E98001046194656A3D3E90023FEF783FB0246F2
:101EA8000B46D7E91801FEF733FD02460B46C7E992
:101EB800142351A1D1E90001D7E91823FEF728FD21
:101EC80002460B46104619464DA3D3E90023FEF7F8
:101ED80069FB02460B4610461946D7E91823FEF758
:101EE80017FD02460B461046194647A3D3E90023BF
:101EF800FEF758FB02460B4610461946D7E9182349
:101F0800FEF706FD02460B461046194640A3D3E9E4
:101F18000023FEF747FB02460B4610461946D7E951
:101F28001823FEF7F5FC02460B46104619464FF0FB
:101F380000023E4BFEF736FB02460B46C7E912236A
:101F480097ED180BFFF70CFC87ED0E0BBB6D384AAD
:101F580093426FDDD7E91223D7E91401FEF702FE99
:101F680002460B46C7E910230FF2AC09D9E90089EC
:101F7800D7E91023D7E90E01FEF7CAFC02460B4643
:101F880010461946D7E90E23FEF70CFB02460B460E
:101F98001046194602460B46FEF704FB02460B465E
:101FA800104619461EA3D3E90023FEF7F9FA0246A4
:101FB8000B4640464946FEF7F3FA02460B46C7E988
:101FC8001823C3E0AFF3008009F7FD0DE13D023FA0
:101FD80088B20175E0EF493F3B8F68B52882A4BFFE
:101FE8005544880E55C1C93F7D6FEB0312D6D4BF47
:101FF800555555555555C53F82922EB1C5B8B33F75
:1020080059018D1B6C06E6BFC88A599CE52A004019
:102018004B2D8A1C273A03C0182D4454FB21F93F45
:10202800075C143326A6913C0000E03F0000F03F17
:102038003233EF3FD7E90E23C7E91023D7E910233E
:10204800C7E902230023BB60D7E90223C7E91023AD
:10205800D7E91023D7E91001FEF75AFC02460B46D0
:10206800D7E91801FEF79CFA02460B4690469946B6
:10207800D7E91023D7E90E01FEF794FA02460B467A
:1020880040464946FEF76EFD02460B46C7E90C235B
:10209800D7E91223D7E91401FEF764FD02460B467F
:1020A800C7E90A23D7E90E0102460B46FEF77AFA7A
:1020B80002460B4610461946D7E90A23FEF728FCC4
:1020C80002460B4692469B460FF2AC09D9E90089B5
:1020D800D7E90C0102460B46FEF764FA02460B46A6
:1020E80040464946FEF75CFA02460B4650465946BA
:1020F800FEF756FA02460B46C7E914230FF2800989
:10210800D9E90089D7E9100102460B46FEF74AFAD9
:1021180002460B4640464946FEF742FA02460B463F
:10212800C7E912230FF25809D9E90089D7E9122320
:10213800D7E91401FEF734FA02460B4640464946F1
:10214800FEF72EFA02460B46C7E91823FB6D002B53
:1021580002DDD7E9184503E03C6E7B6E83F000454D
:1021680045EC174BB0EE470AF0EE670A6837BD46F4
:10217800BDE8B08FAFF30080075C143326A6913C0E
:10218800182D4454FB21E93F80B485B000AFC7E95E
:102198000001D7E90023C7E90223D7E90223104643
:1021A80019461437BD465DF8047B70472DE9B043E6
:1021B80084B000AFC7E90001D7E90001FFF7E4FFE9
:1021C800C7E90201D7E90223144683F4002514EB7A
:1021D800040845EB0509404649464FF00002064B06
:1021E8008B4208BF824234BF01230023DBB218466A
:1021F8001037BD46BDE8B0830000F0FFB0B5DAB0D7
:1022080000AF07F1080383ED000B3B4683ED001B8D
:1022180007F10803D3E90023C7E92223D7F88C3054
:10222800C7F82431D7F88830C7F820313B46D3E9BE
:102238000023C7E92023D7F88430C7F81C31D7F822
:102248008030C7F81831D7F8243123F00043C7F895
:102258002831D7F81C3123F00043C7F81431D7F8D8
:102268001421D7F818311343002B1BD107F10803A9
:10227800D3E90001FFF79AFF0346002B0ED007F1C0
:1022880008013B46D3E90023D1E90001FEF78AF9AA
:1022980002460B4643EC172B01F01EB99FEDCA7B93
:1022A80001F01AB9D7F82831CB4A934216DCD7F88F
:1022B8002831C94A934203D1D7F82031002B0DD1D8
:1022C800D7F81431C44A934208DCD7F81431C24A0B
:1022D80093422AD1D7F81831002B26D0D7F82431C9
:1022E80003F1404303F580131A46D7F8203113430E
:1022F800002B0BD13B46D3E90001FFF757FF0346FC
:10230800002B03D19FEDB07B01F0E6B807F108017F
:102318003B46D3E90023D1E90001FEF743F9024621
:102328000B4643EC172B01F0D7B80023C7F8303120
:10233800D7F82431002B59DAD7F81431A74A934239
:1023480003DD0223C7F8303150E0D7F81431A44A2E
:1023580093424BDDD7F814311B15A3F2FF33C7F8AE
:102368003431D7F83431142B1EDDD7F83431C3F1AA
:102378003403D7F8182122FA03F3C7F81031D7F835
:102388001021D7F83431C3F1340302FA03F3D7F834
:1023980018219A422AD1D7F8103103F00103C3F16A
:1023A8000203C7F8303121E0D7F81831002B1DD1CE
:1023B800D7F83431C3F11403D7F8142142FA03F3E0
:1023C800C7F81031D7F83431C3F11403D7F8102106
:1023D80002FA03F3D7F814219A4207D1D7F810313B
:1023E80003F00103C3F10203C7F83031D7F81831FD
:1023F800002B7ED1D7F81431774A934233D1D7F8DE
:10240800283103F1404303F580131A46D7F82031E9
:102418001343002B03D19FED6C7B01F05DB8D7F817
:1024280028316F4A93420CDDD7F81C31002B04DBAE
:102438003B4693ED007B01F04FB89FED657B01F0C3
:102448004BB8D7F81C31002B09DA3B4693ED007ADC
:102458005B6883F0004307EE903A01F03DB89FEDCA
:102468005C7B01F039B8D7F814315E4A934218D131
:10247800D7F81C31002B0EDA4FF00000594907F14C
:102488000803D3E90023FEF76DFB02460B4643EC35
:10249800172B01F021B807F1080393ED007B01F039
:1024A8001BB8D7F81C31B3F1804F0DD107F10801E3
:1024B800D1E90023D1E90001FEF72AFA02460B46CA
:1024C80043EC172B01F008B8D7F81C31464A934261
:1024D8000FD1D7F82431002B0BDB07F1080393ED5C
:1024E800000BFFF73DF9B0EE407AF0EE607A00F0AD
:1024F800F3BF07F1080393ED000BFFF7DBF887ED57
:10250800560BD7F82031002B70D1D7F82831324A32
:10251800934208D0D7F82831002B04D0D7F82831B7
:10252800304A934262D1D7E95623C7E95823D7F8EE
:102538001C31002B0ADA4FF000002A49D7E958234A
:10254800FEF710FB02460B46C7E95823D7F824319B
:10255800002B33DAD7F8283103F1404303F5801311
:10256800D7F830211343002B1AD1D7E95823D7E9DC
:102578005801FEF715F802460B4614461D46D7E9E2
:102588005823D7E95801FEF70BF802460B462046B8
:102598002946FEF7E7FA02460B46C7E958230DE03D
:1025A800D7F83031012B09D1D7F86031C7F860313D
:1025B800D7F8643183F00043C7F8643197ED587B4E
:1025C80000F08ABFAFF30080000000000000F03F79
:1025D80000000000000000000000F07FFFFF3F4304
:1025E800FFFFEF3F0000F03F0000E03FD7F8243145
:1025F800DB0F013BC7F82C31D7F82C21D7F8303145
:102608001343002B1FD107F10801D1E90023D1E9B9
:102618000001FDF7C5FF02460B4614461D4607F1AB
:102628000801D1E90023D1E90001FDF7B9FF02460D
:102638000B4620462946FEF795FA02460B4643EC20
:10264800172B00F049BF4FF00002AF4BC7E94E23EC
:10265800D7F830315A1ED7F82C311343002B09D143
:102668004FF00002A84B1146C7F8381183F0004319
:10267800C7F83C31D7F81431B3F1844F40F34E8199
:10268800D7F81431A14A934230DDD7F82831A04A4F
:10269800934215DCD7F81C31002B08DA002001F032
:1026A8009BF8B0EE407AF0EE607A00F015BF00209B
:1026B80001F060F8B0EE407AF0EE607A00F00CBFFE
:1026C800D7F81C31002B08DD002001F085F8B0EEAA
:1026D800407AF0EE607A00F0FFBE002001F04AF880
:1026E800B0EE407AF0EE607A00F0F6BED7F8283106
:1026F800874A934235DAD7F81C31002B18DA0123C0
:102708001C464FF000024FF00003D7E94E01FEF7D8
:1027180071FB0346002B01D100231C46E3B2184687
:1027280001F05AF8B0EE407AF0EE607A00F0D4BECC
:1027380001231C464FF000024FF00003D7E94E0179
:10274800FEF758FB0346002B01D100231C46E3B2D9
:10275800184601F00FF8B0EE407AF0EE607A00F01B
:10276800BBBED7F82831684A934235DDD7F81C310B
:10277800002B18DD01231C464FF000024FF0000328
:10278800D7E94E01FEF736FB0346002B01D10023A3
:102798001C46E3B2184601F01FF8B0EE407AF0EE9E
:1027A800607A00F099BE01231C464FF000024FF0FA
:1027B8000003D7E94E01FEF71DFB0346002B01D1AC
:1027C80000231C46E3B2184600F0D4FFB0EE407A6E
:1027D800F0EE607A00F080BE4FF000024A4BD7E975
:1027E8005601FDF7DDFE02460B46C7E92A23D7E965
:1027F8002A23D7E92A01FEF78BF802460B4614462E
:102808001D464FF00002434BD7E92A01FEF780F836
:1028180002460B4634A1D1E90001FDF7C1FE02468C
:102828000B4610461946D7E92A23FEF771F80246E7
:102838000B464FF000003849FDF7B2FE02460B4642
:1028480020462946FEF764F802460B46C7E92823C6
:1028580027A3D3E90023D7E92A01FEF759F802464E
:102868000B46C7E9422324A1D1E90001D7E92A236D
:10287800FEF74EF802460B4614461D4620A1D1E944
:102888000001D7E92823FEF743F802460B46204605
:102898002946FDF785FE02460B46C7E94023D7E9DE
:1028A8004023D7E94201FDF77DFE02460B46C7E902
:1028B8005223D7E95223C7E91E230023BB67D7E970
:1028C8001E23C7E95223D7E94223D7E95201FDF76E
:1028D80067FE02460B46D7E94001FDF761FE024656
:1028E8000B46C7E95023F5E2555555555555D53F83
:1028F800000000604715F73F44DF5DF80BAE543E1B
:10290800FE822B654715F73F0000F03F0000F043BB
:10291800FFFFEF3F0000D03F0000E03F0023C7F873
:102928002C31D7F82831B3F5801F16DA4FF00002A2
:102938001F4BD7E95601FDF7EBFF02460B46C7E9E7
:102948005623D7F82C31353BC7F82C31D7E9562315
:10295800C7E91C237B6FC7F82831D7F828311B1526
:10296800A3F2FF33D7F82C211344C7F82C31D7F83A
:102978002831C3F31303C7F81031D7F8103143F0E7
:102988007F5343F44013C7F82831D7F81031094A68
:10299800934203DC0023C7F834311DE0D7F8103127
:1029A800054A93420ADC0123C7F8343114E000BF1A
:1029B800000040438E98030079B60B000023C7F847
:1029C8003431D7F82C310133C7F82C31D7F82831F6
:1029D800A3F58013C7F8283107F16801D7E9562312
:1029E800C1E90023D7F8282107F168035A6007F1E5
:1029F8006803D3E90023C7E95623BD4AD7F8343121
:102A0800DB001344D3E90023D7E95601FDF7C8FDDD
:102A180002460B46C7E942234FF00004B54DB44ABD
:102A2800D7F83431DB001344D3E90001D7E9562342
:102A3800FDF7B8FD02460B4620462946FEF792F8F8
:102A480002460B46C7E94023D7E94023D7E94201AC
:102A5800FDF75EFF02460B46C7E93E23D7E93E2352
:102A6800C7E93C2307F16001D7E93C23C1E900230A
:102A780007F1600300221A6007F16003D3E900231D
:102A8800C7E93C234FF000024FF00003C7E93A239F
:102A980007F15801D7E93A23C1E90023D7F82831CB
:102AA8005B1043F0005303F50022D7F834319B0440
:102AB80013441A4607F158035A6007F15803D3E93B
:102AC8000023C7E93A238A4AD7F83431DB00134494
:102AD800D3E90023D7E93A01FDF762FD02460B4628
:102AE800D7E95601FDF75CFD02460B46C7E93823D6
:102AF800D7E93A23D7E93C01FDF70AFF02460B461E
:102B0800D7E94201FDF74CFD02460B4614461D4627
:102B1800D7E93823D7E93C01FDF7FAFE02460B4610
:102B280020462946FDF73CFD02460B46D7E9400101
:102B3800FDF7EEFE02460B46C7E93623D7E93E23EA
:102B4800D7E93E01FDF7E4FE02460B46C7E9342308
:102B5800D7E93423D7E93401FDF7DAFE02460B46FC
:102B680014461D4656A1D1E90001D7E93423FDF7E3
:102B7800CFFE02460B461046194653A3D3E900235D
:102B8800FDF710FD02460B4610461946D7E93423D7
:102B9800FDF7BEFE02460B46104619464CA3D3E984
:102BA8000023FDF7FFFC02460B4610461946D7E9FD
:102BB8003423FDF7ADFE02460B461046194646A3E0
:102BC800D3E90023FDF7EEFC02460B4610461946F2
:102BD800D7E93423FDF79CFE02460B4610461946FA
:102BE8003FA3D3E90023FDF7DDFC02460B46104660
:102BF8001946D7E93423FDF78BFE02460B461046EB
:102C0800194639A3D3E90023FDF7CCFC02460B464D
:102C180020462946FDF77CFE02460B46C7E93223CB
:102C2800D7E93E23D7E93C01FDF7BCFC02460B4639
:102C380010461946D7E93623FDF76AFE02460B46C9
:102C4800D7E93201FDF7AEFC02460B46C7E932234D
:102C5800D7E93C23D7E93C01FDF75AFE02460B466B
:102C6800C7E934234FF00002234BD7E93401FDF7BD
:102C780099FC02460B46D7E93201FDF793FC024660
:102C88000B46C7E93A2307F15001D7E93A23C1E9CE
:102C9800002307F1500300221A6007F15003D3E91B
:102CA8000023C7E93A234FF00002134BD7E93A0152
:102CB800FDF776FC02460B4620E000BFAFF300802C
:102CC800EF4E454A287ECA3F65DBC9934A86CD3F09
:102CD80001411DA96074D13F4D268F515555D53FEF
:102CE800FFAB6FDBB66DDB3F033333333333E33F87
:102CF800C06900080000F03F00000840104619466F
:102D0800D7E93423FDF74CFC02460B46D7E93201DC
:102D1800FDF746FC02460B46C7E93823D7E93A23B4
:102D2800D7E93C01FDF7F4FD02460B46C7E942230B
:102D3800D7E93A23D7E93601FDF7EAFD02460B4603
:102D480014461D46D7E93E23D7E93801FDF7E0FDD3
:102D580002460B4620462946FDF724FC02460B4650
:102D6800C7E94023D7E94023D7E94201FDF71AFC18
:102D780002460B46C7E9542307F14801D7E9542313
:102D8800C1E9002307F1480300221A6007F148034C
:102D9800D3E90023C7E95423D7E94223D7E95401EB
:102DA800FDF7FEFB02460B46D7E94001FDF7F8FBAD
:102DB80002460B46C7E93023D2A3D3E90023D7E95B
:102DC8005401FDF7A5FD02460B46C7E92E23CFA106
:102DD800D1E90001D7E95423FDF79AFD02460B46D5
:102DE80014461D46CBA1D1E90001D7E93023FDF7F0
:102DF8008FFD02460B4620462946FDF7D3FB0246C7
:102E08000B4610461946BA4AD7F83431DB0013444A
:102E1800D3E90023FDF7C6FB02460B46C7E92C237E
:102E2800D7F82C01FDF70AFD02460B46C7E92A230D
:102E3800D7E92C23D7E92E01FDF7B4FB02460B4650
:102E480010461946AB4AD7F83431DB001344D3E9AE
:102E58000023FDF7A7FB02460B46D7E92A01FDF739
:102E6800A1FB02460B46C7E9522307F14001D7E907
:102E78005223C1E9002307F1400300221A6007F139
:102E88004003D3E90023C7E95223D7E92A23D7E926
:102E98005201FDF785FB02460B4610461946954A36
:102EA800D7F83431DB001344D3E90023FDF778FB6E
:102EB80002460B4610461946D7E92E23FDF770FB4C
:102EC80002460B46D7E92C01FDF76AFB02460B4682
:102ED800C7E950233B46D3E90023C7E9262307F176
:102EE8003801D7E92623C1E9002307F13803002276
:102EF8001A6007F13803D3E90023C7E926233946C6
:102F0800D7E92623D1E90001FDF74AFB02460B4623
:102F180010461946D7E95223FDF7FAFC02460B463C
:102F280014461D463946D7E95023D1E90001FDF77B
:102F3800EFFC02460B4620462946FDF733FB0246C6
:102F48000B46C7E93023D7E95223D7E92601FDF715
:102F5800DFFC02460B46C7E95423D7E95423D7E9D7
:102F68003001FDF71FFB02460B46C7E9582307F15E
:102F78003001D7E95823C1E9002307F130035B6822
:102F8800C7F8103107F130031B68C7F89430D7F839
:102F98001031594A934255DDD7F8103103F13F43B8
:102FA80003F5E003D7F894201343002B17D001232F
:102FB8001C464FF000024FF00003D7E94E01FDF721
:102FC80019FF0346002B01D100231C46E3B2184623
:102FD80000F002FCB0EE407AF0EE607A7CE242A1AA
:102FE800D1E90001D7E93023FDF7DCFA02460B46A8
:102FF80014461D46D7E95423D7E95801FDF7D0FAFE
:1030080002460B4620462946FDF712FF0346002BD1
:1030180000F0848001231C464FF000024FF00003AB
:10302800D7E94E01FDF7E6FE0346002B01D1002348
:103038001C46E3B2184600F0CFFBB0EE407AF0EE43
:10304800607A49E2D7F8103123F000432B4A9342C3
:1030580064DDD7F810212A4B1344D7F89420134382
:10306800002B17D001231C464FF000024FF000033D
:10307800D7E94E01FDF7BEFE0346002B01D1002320
:103088001C46E3B2184600F075FBB0EE407AF0EE4D
:10309800607A21E2D7E95423D7E95801FDF780FA8D
:1030A80002460B46D7E93001FDF7AEFE0346002B7A
:1030B80034D001231C464FF000024FF00003D7E93B
:1030C8004E01FDF797FE0346002B01D100231C4655
:1030D800E3B2184600F04EFBB0EE407AF0EE607AAC
:1030E800FAE100BFAFF30080FE822B654715973CDD
:1030F800E0690008D0690008FFFF8F40FFCB9040CF
:1031080000346F3F000000E009C7EE3FF5015B1493
:10311800E02F3EBEFD033ADC09C7EE3FD7F8103179
:1031280023F00043C7F89430D7F894301B15A3F266
:10313800FF33C7F834310023C7F82C31D7F894305F
:10314800C54A934254DDD7F8343101334FF4801225
:1031580042FA03F3D7F810211344C7F82C31D7F8F3
:103168002C311B15C3F30A03A3F2FF33C7F834311C
:103178004FF000024FF00003C7E92A2307F12801A6
:10318800D7E92A23C1E90023B44AD7F8343142FAEF
:1031980003F3DA43D7F82C3113401A4607F1280312
:1031A8005A6007F12803D3E90023C7E92A23D7F88F
:1031B8002C31C3F3130343F48012D7F83431C3F12D
:1031C800140342FA03F3C7F82C31D7F81031002B57
:1031D80004DAD7F82C315B42C7F82C31D7E92A2317
:1031E800D7E95401FDF7DCF902460B46C7E9542339
:1031F800D7E95423D7E93001FDF7D4F902460B4645
:10320800C7E92A2307F12001D7E92A23C1E90023C6
:1032180007F1200300221A6007F12003D3E90023F5
:10322800C7E92A237CA3D3E90023D7E92A01FDF7BC
:103238006FFB02460B46C7E94223D7E95423D7E977
:103248002A01FDF7ADF902460B46D7E93001FDF733
:10325800A7F902460B461046194671A3D3E9002385
:10326800FDF756FB02460B4614461D466EA1D1E9F2
:103278000001D7E92A23FDF74BFB02460B462046FF
:103288002946FDF78FF902460B46C7E94023D7E9DF
:103298004023D7E94201FDF785F902460B46C7E905
:1032A8005823D7E94223D7E95801FDF779F90246AF
:1032B8000B46D7E94001FDF773F902460B46C7E90B
:1032C8002823D7E95823D7E95801FDF721FB0246FF
:1032D8000B46C7E92A2356A1D1E90001D7E92A23D9
:1032E800FDF716FB02460B461046194652A3D3E9D2
:1032F8000023FDF757F902460B4610461946D7E951
:103308002A23FDF705FB02460B46104619464CA337
:10331800D3E90023FDF746F902460B461046194645
:10332800D7E92A23FDF7F4FA02460B461046194658
:1033380045A3D3E90023FDF735F902460B461046AD
:103348001946D7E92A23FDF7E3FA02460B46104649
:1033580019463FA3D3E90023FDF724F902460B469B
:1033680010461946D7E92A23FDF7D2FA02460B463A
:10337800D7E95801FDF714F902460B46C7E952236D
:10338800D7E95223D7E95801FDF7C2FA02460B469E
:1033980014461D464FF000024FF08043D7E9520112
:1033A800FDF7FEF802460B4620462946FDF7DAFBF4
:1033B80002460B4614461D46D7E92823D7E958018B
:1033C800FDF7A6FA02460B4610461946D7E9282308
:1033D800FDF7E8F802460B4620462946FDF7E0F8D7
:1033E80002460B46C7E932234FF000041C4DD7E9CB
:1033F8005823D7E93201FDF7D3F802460B46204699
:103408002946FDF7CDF802460B46C7E9582307F1D0
:10341800180127E0AFF3008000000000432EE63FCC
:10342800EF39FAFE422EE63F396CA80C615C20BEEB
:10343800D0A4BE726937663EF16BD2C541BDBBBE32
:103448002CDE25AF6A56113F93BDBE166CC166BF10
:103458003E5555555555C53F0000E03FFFFF0F004D
:103468000000F03FD7E95823C1E9002307F118030A
:103478005B68C7F81031D7F82C311B05D7F8102135
:103488001344C7F81031D7F810311B15002B08DC8E
:10349800D7F82C0197ED580B00F026F887ED580B5C
:1034A80010E007F11001D7E95823C1E90023D7F844
:1034B800102107F110035A6007F11003D3E9002324
:1034C800C7E95823D7E95823D7E94E01FDF720FA71
:1034D80002460B4643EC172BB0EE470AF0EE670A9C
:1034E80007F5B477BD46B0BD80B590B000AF87EDA5
:1034F800020B7860D7E90223C7E90A23FB6ABB639A
:10350800BB6A7B63BB6B1B15C3F30A03FB63FB6BD3
:10351800002B2ED1BB6B23F000427B6B1343002B97
:1035280002D1D7E90223B4E04FF00002624BD7E999
:103538000201FDF7EDF902460B46C7E90223D7E978
:103548000223C7E908237B6ABB63BB6B1B15C3F364
:103558000A03363BFB637B68584A934209DA52A157
:10356800D1E90001D7E90223FDF7D2F902460B465B
:103578008FE0FB6B40F2FF72934208D1D7E902015A
:1035880002460B46FDF70EF802460B4681E07B68C3
:103598004CF25032934213DD9FED457B97ED021BB1
:1035A800B0EE470AF0EE670A00F0F8F951EC100B9C
:1035B8003FA3D3E90023FDF7ABF902460B4668E0C9
:1035C800FA6B7B681344FB63FB6B40F2FE72934219
:1035D80013DD9FED377B97ED021BB0EE470AF0EE47
:1035E800670A00F0DBF951EC100B31A3D3E9002393
:1035F800FDF78EF902460B464BE0FB6B002B13DD03
:10360800D7E90223C7E90623BB6B23F0FF4323F462
:10361800E003FA6B12051343FB61D7E90623C7E9F8
:103628000223D7E9022334E0FB6B13F1350F13DAD9
:103638009FED1D7B97ED021BB0EE470AF0EE670A7F
:1036480000F0ACF951EC100B17A3D3E90023FDF7F8
:103658005FF902460B461CE0FB6B3633FB63D7E988
:103668000223C7E90423BB6B23F0FF4323F4E003E1
:10367800FA6B120513437B61D7E90423C7E90223D8
:103688004FF000000E49D7E90223FDF741F9024641
:103698000B4643EC172BB0EE470AF0EE670A4037AB
:1036A800BD4680BDAFF3008059F3F8C21F6EA50177
:1036B8009C7500883CE4377E00005043B03CFFFF17
:1036C8000000903C0000000080B485B000AFC7E95E
:1036D8000001D7E90023C7E90223D7E902231046EE
:1036E80019461437BD465DF8047B704780B584B031
:1036F80000AF87ED020B7860FCF742FF02467B685B
:103708001360D7E9022343EC172BB0EE470AF0EE1B
:10371800670A1037BD4680BD80B584B000AFF86039
:1037280087ED000BF968002904D03A68796881F0C0
:10373800004301E0D7E9002310461946FFF7C4FF0C
:1037480002460B46D7E90001FDF7E2F802460B46B0
:10375800C7E90023222097ED000BFFF7C7FFB0EE63
:10376800407AF0EE607AB0EE470AF0EE670A10375A
:10377800BD4680BD80B582B000AF78609FED080B74
:103788007868FFF7C9FFB0EE407AF0EE607AB0EEE5
:10379800470AF0EE670A0837BD4680BDAFF30080E0
:1037A800000000000000001080B582B000AF786013
:1037B8009FED070B7868FFF7AFFFB0EE407AF0EEA9
:1037C800607AB0EE470AF0EE670A0837BD4680BD5A
:1037D800000000000000581E80B582B000AF78607D
:1037E8009FED070B7868FFF797FFB0EE407AF0EE91
:1037F800607AB0EE470AF0EE670A0837BD4680BD2A
:10380800000000000000007080B584B000AF786050
:103818007B68002B03D04FF00002114B02E04FF001
:103828000002104B10461946FFF74EFF4FF00002FA
:103838004FF00003FDF796F902460B46C7E902234D
:10384800222097ED020BFFF751FFB0EE407AF0EE21
:10385800607AB0EE470AF0EE670A1037BD4680BDC1
:103868000000F0BF0000F03FB0B584B000AF87EDB6
:10387800000BD7E90023D7E90001FCF791FE0246C7
:103888000B4614461D46D7E90023D7E90001FCF78B
:1038980087FE02460B4620462946FDF763F9024695
:1038A8000B46C7E90223D7E90023D7E90001FDF752
:1038B800C9FA0346002B09D1212097ED020BFFF727
:1038C80015FFB0EE407AF0EE607A01E097ED027BEA
:1038D800B0EE470AF0EE670A1037BD46B0BD80B5B6
:1038E80082B000AF87ED000B4FF000024FF00003ED
:1038F800D7E90001FDF774FA0346002B09D022200E
:1039080097ED000BFFF7F2FEB0EE407AF0EE607A2A
:1039180001E097ED007BB0EE470AF0EE670A083742
:10392800BD4680BDF0B583B000AF87ED000B3C68A5
:103938007B6823F0004501231E464FF0FF32164BEB
:1039480020462946FDF77EFA0346002B0BD14FF09F
:10395800FF32114B20462946FDF756FA0346002B45
:1039680001D100231E46F3B283F00103DBB2002B22
:1039780009D0222097ED000BFFF7B8FEB0EE407A91
:10398800F0EE607A01E097ED007BB0EE470AF0EECA
:10399800670A0C37BD46F0BDFFFFEF7F80B48DB0DE
:1039A80000AF87ED020B87ED001BD7E90223C7E9BB
:1039B80008237B6AFB62D7E90023C7E90623FB6972
:1039C800BB62D7E90223C7E90423FB6A23F000425C
:1039D800BB6A03F0004313437B61D7E90423C7E9BB
:1039E8000223D7E9022343EC172BB0EE470AF0EE87
:1039F800670A3437BD465DF8047B704780B500AF71
:103A080000216A2001F046FB0221372001F042FB29
:103A18003C21002000F00AF80221012000F006F8FD
:103A28000021022000F002F800BF80BD80B582B0FE
:103A380000AF03460A46FB711346BB7102F0E5FC72
:103A48003C2002F085FD00BF02F01BFD0346002B61
:103A5800FAD0FB79184602F07BFD00BF02F011FD99
:103A68000346002BFAD0BB79184602F071FD00BF5F
:103A780002F007FD0346002BFAD002F0E4FC00BF79
:103A88000837BD4680BD80B588B000AF7860062392
:103A9800FB6107F10C03BB6100BF00F068F8034647
:103AA80003F00103002BF8D002F0AFFC3C2002F039
:103AB8004FFD00BF02F0E5FC0346002BFAD00320BF
:103AC80002F046FD00BF02F0DCFC0346002BFAD0F2
:103AD80002F09BFC3D2002F03BFD00BF02F0D1FC50
:103AE8000346002BFAD018E0FB69012B0AD102F03B
:103AF80065FD03461A46BB691A7002F010FD02F014
:103B0800A2FC0FE002F05AFD03461A46BB691A7080
:103B180002F0E7FCBB690133BB61FB695A1EFA611D
:103B2800002BE1D100237B6119E07B695B00203326
:103B38003B4413F8143C1B029BB27A6952000132D1
:103B480020323A4412F8142C134499B27B695B0072
:103B58007A6813440AB21A807B6901337B617B69F6
:103B6800022BE2DD00BF00BF2037BD4680BD80B517
:103B780082B000AF02F049FC3C2002F0E9FC00BF33
:103B880002F07FFC0346002BFAD0092002F0E0FC8B
:103B980000BF02F076FC0346002BFAD002F035FC99
:103BA8003D2002F0D5FC00BF02F06BFC0346002B61
:103BB800FAD002F003FD0346FB7102F0B0FC02F0FC
:103BC80042FCFB7918460837BD4680BD000000005E
:103BD8002DE9B043AEB000AF786087ED000AE64B40
:103BE800B3F9003007EE903AB8EEE77AE34BD3ED3D
:103BF800007A77EE676AE24BD3ED007A86EEA77A11
:103C0800DFEDE06AC7EE267AC7ED2D7ADA4BB3F915
:103C1800023007EE903AB8EEE77ADB4BD3ED007A44
:103C280077EE676AD94BD3ED007A86EEA77ADFED97
:103C3800D56AC7EE267AC7ED2C7ACF4BB3F9043094
:103C480007EE903AB8EEE77AD14BD3ED007A77EEEB
:103C5800676AD04BD3ED007A86EEA77ADFEDC96AA2
:103C6800C7EE267AC7ED2B7ACB4BB3F9083007EEAF
:103C7800903AF8EEE77A9FEDC97A27EE877ADFED7A
:103C8800C86AC7EE267AC7ED2A7AC34BB3F90A3059
:103C980007EE903AF8EEE77A9FEDC07A27EE877A3A
:103CA800DFEDBF6AC7EE267AC7ED297ABA4BB3F9BA
:103CB8000C3007EE903AF8EEE77A9FEDB87A27EEE7
:103CC800877ADFEDB76AC7EE267AC7ED287AB24B56
:103CD800B3F9003007EE903AF8EEE77A9FEDB17A43
:103CE80067EE877AC7ED277AAB4BB3F9023007EE58
:103CF800903AF8EEE77A9FEDAB7A67EE877AC7EDF0
:103D0800267AA54BB3F9043007EE903AF8EEE77A35
:103D18009FEDA47A67EE877AC7ED257AD7F89C00DD
:103D2800FCF79EFD02460B469FED911B43EC102BC2
:103D3800FDF756F955EC104BD7F89800FCF790FDB5
:103D480002460B469FED8A1B43EC102BFDF748F902
:103D580053EC102B20462946FCF724FC02460B4660
:103D680014461D46D7F89400FCF77AFD02460B4628
:103D78009FED7F1B43EC102BFDF732F953EC102B12
:103D880020462946FCF70EFC02460B4643EC172B4F
:103D9800B0EE470AF0EE670AFDF7C8F953EC102BAE
:103DA80010461946FDF78CF80346C7F89030D7ED52
:103DB800276A97ED247AC6EE877AC7ED277AD7ED7A
:103DC800266A97ED247AC6EE877AC7ED267AD7ED6C
:103DD800256A97ED247AC6EE877AC7ED257A724B65
:103DE800D3ED007A77EEA77A97ED2D7A67EE277AEA
:103DF800C7ED237A6C4BD3ED007A77EEA77A97ED6F
:103E08002C7A67EE277AC7ED227A674BD3ED007AD2
:103E180077EEA77A97ED2B7A67EE277AC7ED217AA6
:103E2800614BD3ED017A77EEA77A97ED2D7A67EE9D
:103E3800277AC7ED207A5C4BD3ED007A77EEA77A24
:103E4800C7ED1F7A584BD3ED017A77EEA77AC7ED05
:103E58001E7A554BD3ED027A77EEA77AC7ED1D7A15
:103E6800514BD3ED037A77EEA77AC7ED1C7A4E4B08
:103E7800D3ED007AB1EE007A67EE877AC7ED1B7A48
:103E8800494BD3ED017AB1EE007A67EE877AC7ED38
:103E98001A7A454BD3ED027AB1EE007A67EE877A4B
:103EA800C7ED197A404BD3ED017AB2EE007A67EE8E
:103EB800877AC7ED187A3C4BD3ED027AB2EE007AD6
:103EC80067EE877AC7ED177A374B93ED007A364B52
:103ED800D3ED007A67EE277AC7ED167A324B93ED69
:103EE800007A314BD3ED017A67EE277AC7ED157A60
:103EF8002D4B93ED007A2C4BD3ED027A67EE277A9F
:103F0800C7ED147A284BD3ED027A37EEA77A264B01
:103F1800D3ED007A67EE277AC7ED137A224B93ED3B
:103F2800017A214BD3ED017A67EE277AC7ED127A31
:103F38001D4B93ED017A1C4BD3ED027A67EE277A7D
:103F4800C7ED117A184B93ED007A174BD3ED037A2E
:103F580067EE277AC7ED107A134B93ED017A124B6F
:103F6800D3ED037A67EE277AC7ED0F7A1EE000BF1C
:103F7800000000000000004010030020240300207F
:103F88001803002000408844280300201C03002058
:103F98002C0300202003002058030020FA007A3D5B
:103FA800D02E65428000803838010020EF4B93ED19
:103FB800027AEE4BD3ED027A67EE277AC7ED0E7AD6
:103FC800EA4B93ED027AE94BD3ED037A67EE277A51
:103FD800C7ED0D7AE54B93ED037AE44BD3ED037A05
:103FE80067EE277AC7ED0C7AE04BD3ED027A37EE0D
:103FF800A77ADE4BD3ED037A67EE277AC7ED0B7A03
:1040080097ED2D7AD7ED167A27EE277AD74BD3ED91
:10401800036AD7ED227A66EEA77A37EE677AD34B32
:10402800D3ED026AD7ED217A66EEA77A37EE277AC2
:10403800D7ED2D6AD7ED127A66EEA77A37EE277A92
:10404800D7ED2C6AD7ED1E7A66EEA76AC74BD3ED7B
:10405800027A66EEA77A37EE277AD7ED2B6AD7ED84
:104068001E7A66EEA76AC14BD3ED037A66EEA77A8D
:1040780037EE277AD7ED2D6AD7ED0E7A66EEA77A56
:1040880037EE677AD7ED2D6AD7ED0C7A66EEA77A08
:1040980077EE677AC7ED0A7AB44B93ED037AD7EDDA
:1040A800237A27EE277AD7ED2C6AD7ED167A66EEB3
:1040B800A77A37EE277AAD4BD3ED016AD7ED217A8F
:1040C80066EEA77A37EE677AA84BD3ED026AD7ED8A
:1040D800207A66EEA77A37EE277AD7ED2C6AD7EDE5
:1040E800127A66EEA77A37EE677AD7ED2C6AD7EDA3
:1040F8000E7A66EEA77A37EE277AD7ED1D6AD7EDE6
:104108002B7A66EEA76A994BD3ED037A66EEA77A07
:1041180037EE277AD7ED2C6AD7ED0C7A66EEA77AB8
:1041280077EE677AC7ED097AD7ED0A7A27EEA77A8C
:10413800D7ED097A67EEA77A77EE277A17EE900A15
:10414800FCF78EFB02460B4643EC102BFCF7EEFF08
:1041580053EC102B10461946FCF7B2FE03463B629F
:10416800D7ED237AB1EE677A804BD3ED027A27EE4A
:10417800277A7E4BD3ED016AD7ED227A66EEA77ACD
:1041880037EE277AD7ED2B6AD7ED167A66EEA77A3F
:1041980037EE277A754BD3ED036AD7ED207A66EEB2
:1041A800A77A37EE277AD7ED2B6AD7ED127A66EE23
:1041B800A77A37EE677AD7ED1D6AD7ED2C7A66EEC7
:1041C800A76A6A4BD3ED037A66EEA77A37EE277AA9
:1041D800D7ED2B6AD7ED0E7A66EEA77A37EE677AB7
:1041E800D7ED2B6AD7ED0C7A66EEA77A77EE277AA9
:1041F800C7ED077AD7ED087A77EEA77AC7ED067A82
:10420800D7ED077A77EEA77AC7ED057AD7ED1D7A4D
:10421800B1EE677AD7ED0F7A77EEA76AD7ED137A02
:1042280076EEE76AD7ED277A76EEE77A27EE277AF1
:10423800D7ED157A77EEA76AD7ED0B7A76EEA76AEF
:10424800D7ED267A76EEE76AD7ED1E7A66EEA77A7C
:1042580037EE277A454BD3ED026AD7ED077A66EE3B
:10426800A76AB6EE006AD7ED0E7A36EE676AD7ED22
:104278000C7A36EE676AD7ED087A26EE276AD7ED0C
:104288000F5AD7ED147A75EEE75AD7ED077A65EE2F
:10429800A77A36EE276AD7ED2D7A76EE677A66EE3C
:1042A800A77A37EE677AD7ED087AF1EE676A2F4B6F
:1042B800D3ED037A66EEA76A2C4B93ED016AD7ED2E
:1042C800077A66EE277A76EEA76A97ED116AD7ED38
:1042D800107A36EE676AD7ED087A26EE276AD7EDA8
:1042E800155AD7ED0D7A75EEA75AD7ED077A65EE10
:1042F800A77A36EE276AD7ED2C7A76EE677A66EEDD
:10430800A77A37EE277A194BD3ED026AD7ED087AE8
:1043180066EEA76A97ED146AD7ED0F7A36EE276A2C
:10432800D7ED087A26EE276AF6EE005AD7ED127A0C
:1043380075EEE75AD7ED0E7A75EEE75AD7ED077A9C
:1043480065EEA77A36EE276AD7ED2B7A76EE677A8E
:1043580066EEA77A77EE277A054BC3ED007AD7ED9C
:104368000F7A37EEA77AD7ED137A03E038010020E9
:104378003C03002037EE677AD7ED277A37EE677A65
:10438800D7ED1C7A27EE277AD7ED157A77EEA76A4C
:10439800D7ED0B7A76EEA76AD7ED267A76EEE76A3E
:1043A800D7ED1F7A66EEA77A37EE277AF34BD3ED6F
:1043B800017AF1EE006A67EEA66AD7ED127A77EE17
:1043C800A77AB7EE006A36EE676AD7ED0E7A77EE0F
:1043D800A77A36EE676AD7ED257A76EE677A66EEC3
:1043E800A77A37EE677AE54BD3ED036AD7ED077AFC
:1043F80066EEA76AB6EE006AD7ED0E7A36EE676A01
:10440800D7ED0C7A36EE676AD7ED087A26EE276A7A
:10441800D7ED0F5AD7ED147A75EEE75AD7ED077A2C
:1044280065EEA77A36EE276AD7ED2D7A76EE677AAB
:1044380066EEA77A37EE277AD04BD3ED026AD7ED2E
:10444800087A66EEA76ACD4B93ED006AD7ED077A36
:1044580066EE277A76EEA76A97ED116AD7ED107A9D
:1044680036EE676AD7ED087A26EE276AD7ED155A31
:10447800D7ED0D7A75EEA75AD7ED077A65EEA77ACC
:1044880036EE276AD7ED2C7A76EE677A66EEA77A4B
:1044980037EE277AB94BD3ED036AD7ED087A66EE83
:1044A800A76AB64B93ED016AD7ED057A66EE277ACF
:1044B80076EEE76A97ED146AD7ED0F7A36EE276A3B
:1044C800D7ED087A26EE276AF6EE005AD7ED127A6B
:1044D80075EEE75AD7ED0E7A75EEE75AD7ED077AFB
:1044E80065EEA77A36EE276AD7ED2B7A76EE677AED
:1044F80066EEA77A77EE277AA14BC3ED007AD7ED5F
:104508001F7AB1EE677AD7ED0F7A77EEA76AD7ED03
:10451800137A76EEE76AD7ED277A76EEE77A27EE12
:10452800277AD7ED157A77EEA76AD7ED0B7A76EE6C
:10453800A76AD7ED267A76EEE76AD7ED1C7A66EE9B
:10454800A77A37EE277A8D4BD3ED027AF1EE006A1F
:1045580067EEA66AD7ED127A77EEA77AB7EE006A09
:1045680036EE676AD7ED0E7A77EEA77A36EE676A87
:10457800D7ED257A76EE677A66EEA77A37EE677A10
:10458800D7ED067AF1EE676A7C4BD3ED027A66EED8
:10459800A76A7A4B93ED006AD7ED077A66EE277A19
:1045A80076EEE76AB6EE006AD7ED0E7A36EE676AFF
:1045B800D7ED0C7A36EE676AD7ED087A26EE276AC9
:1045C800D7ED0F5AD7ED147A75EEE75AD7ED077A7B
:1045D80065EEA77A36EE276AD7ED2D7A76EE677AFA
:1045E80066EEA77A37EE277A644BD3ED016AD7EDEA
:1045F800087A66EEA76A614B93ED036AD7ED077AEE
:1046080066EE277A76EEA76A97ED116AD7ED107AEB
:1046180036EE676AD7ED087A26EE276AD7ED155A7F
:10462800D7ED0D7A75EEA75AD7ED077A65EEA77A1A
:1046380036EE276AD7ED2C7A76EE677A66EEA77A99
:1046480037EE277A4D4BD3ED006AD7ED087A66EE40
:10465800A76A4A4B93ED026AD7ED057A66EE277A88
:1046680076EEE76A97ED146AD7ED0F7A36EE276A89
:10467800D7ED087A26EE276AF6EE005AD7ED127AB9
:1046880075EEE75AD7ED0E7A75EEE75AD7ED077A49
:1046980065EEA77A36EE276AD7ED2B7A76EE677A3B
:1046A80066EEA77A77EE277A364BC3ED007AD7ED18
:1046B8000F7A37EEA77AD7ED137A37EE677AD7ED08
:1046C800277A37EE677AD7ED1E7A27EE277AD7ED65
:1046D800157A77EEA76AD7ED0B7A76EEA76AD7ED4B
:1046E800267A76EEE76AD7ED1D7A66EEA77A37EE78
:1046F800277AD7ED067AF1EE676A204BD3ED037A75
:1047080066EEA76A1D4B93ED016AD7ED077A66EE50
:10471800277A76EEA76AB6EE006AD7ED0E7A36EEFD
:10472800676AD7ED0C7A36EE676AD7ED087A26EE17
:10473800276AD7ED0F5AD7ED147A75EEE75AD7EDF9
:10474800077A65EEA77A36EE276AD7ED2D7A76EEE8
:10475800677A66EEA77A37EE277AD7ED087AF1EE10
:10476800676A064BD3ED007A66EEA76A034B93EDB2
:10477800026AD7ED077A66EE277A05E0380100204D
:10478800400300204403002076EEA76A97ED116AE3
:10479800D7ED107A36EE676AD7ED087A26EE276AE3
:1047A800D7ED155AD7ED0D7A75EEA75AD7ED077ADA
:1047B80065EEA77A36EE276AD7ED2C7A76EE677A19
:1047C80066EEA77A37EE277AD94BD3ED016AD7ED93
:1047D800087A66EEA76A97ED146AD7ED0F7A36EE77
:1047E800276AD7ED087A26EE276AF6EE005AD7ED43
:1047F800127A75EEE75AD7ED0E7A75EEE75AD7EDCD
:10480800077A65EEA77A36EE276AD7ED2B7A76EE29
:10481800677A66EEA77A77EE277AC64BC3ED007AF9
:10482800C54BD3ED007AF5EE407AF1EE10FA17D1C8
:10483800C24BD3ED007AF5EE407AF1EE10FA0FD1C3
:10484800BF4BD3ED007AF5EE407AF1EE10FA07D1BE
:10485800B84BD3ED007AF5EE407AF1EE10FA5FD05E
:10486800B54B93ED007AB44BD3ED007A27EE277A57
:10487800B24BD3ED006AB14BD3ED007A66EEA77A5E
:1048880037EE277AAE4BD3ED006AAD4BD3ED007A05
:1048980066EEA77A37EE277AA64BD3ED006AA54BCA
:1048A800D3ED007A66EEA77A77EE277A17EE900AAC
:1048B800FBF7D6FF02460B4643EC102BFCF736FC01
:1048C80053EC102B10461946FCF7FAFA03463B61E5
:1048D800994BD3ED006A97ED047AC6EE877A964B2A
:1048E800C3ED007A954BD3ED006A97ED047AC6EED6
:1048F800877A924BC3ED007A914BD3ED006A97ED1E
:10490800047AC6EE877A8E4BC3ED007A894BD3EDD5
:10491800006A97ED047AC6EE877A864BC3ED007A73
:10492800884BFB60824B1B681846FBF799FF0446CF
:104938000D467F4B93ED017AD7ED2A7A27EE277A39
:104948007B4BD3ED026AD7ED297A66EEA77A37EE6C
:10495800277A774BD3ED036AD7ED287A66EEA77AE4
:1049680077EE277A17EE900AFBF77AFF6EA3D3E962
:104978000023FBF7CDFF02460B4620462946FBF7EE
:104988000FFE02460B4614461D466B4B93ED007A0C
:10499800D7ED037A67EE277A17EE900AFBF760FFE8
:1049A80002460B4620462946FBF7FAFD02460B460F
:1049B80010461946FCF784FA03465D4A13605C4BBF
:1049C8005B681846FBF74CFF04460D46584B93EDC1
:1049D800007AD7ED2A7A27EE277A554BD3ED036A6A
:1049E800D7ED297A66EEA77A37EE677A504BD3ED82
:1049F800026AD7ED287A66EEA77A77EE277A17EE5D
:104A0800900AFBF72DFF48A3D3E90023FBF780FFAB
:104A180002460B4620462946FBF7C4FD02460B46D4
:104A280014461D46454B93ED007AD7ED037A67EEA1
:104A3800277A17EE900AFBF713FF02460B4620462B
:104A48002946FBF7ADFD02460B4610461946FCF712
:104A580037FA0346364A5360354B9B681846FBF7CE
:104A6800FFFE04460D46324B93ED037AD7ED2A7AC2
:104A780027EE277A2E4BD3ED006AD7ED297A66EE1A
:104A8800A77A37EE277A2A4BD3ED016AD7ED287A31
:104A980066EEA77A77EE677A17EE900AFBF7E0FEE4
:104AA80021A3D3E90023FBF733FF02460B46204638
:104AB8002946FBF777FD02460B4614461D46204B58
:104AC80093ED007AD7ED037A67EE277A17EE900A0E
:104AD800FBF7C6FE02460B4620462946FBF760FD5B
:104AE80002460B4610461946FCF7EAF90346104AF7
:104AF80093600F4BDB681846FBF7B2FE04460D4681
:104B08000B4B93ED017AD7ED297A27EE277A084BDC
:104B1800D3ED026AD7ED2A7A66EEA77A37EE677A7E
:104B280012E000BFAFF30080FA7E6ABC7493783F4E
:104B380038010020480300203C03002040030020E7
:104B480044030020CDCCCC3DDB4BD3ED006AD7ED40
:104B5800287A66EEA77A77EE277A17EE900AFBF79F
:104B68007FFED1A3D3E90023FBF7D2FE02460B4612
:104B780020462946FBF716FD02460B4614461D46FD
:104B8800CE4B93ED007AD7ED037A67EE277A17EECE
:104B9800900AFBF765FE02460B4620462946FBF7BE
:104BA800FFFC02460B4610461946FCF789F90346F6
:104BB800C14AD360C04B1B681846FBF751FE02463A
:104BC8000B469FEDBB1B43EC102BFCF709FA55EC89
:104BD800104BB94B5B681846FBF742FE02460B4682
:104BE8009FEDB31B43EC102BFCF7FAF953EC102B99
:104BF80020462946FBF7D6FC02460B4614461D46BE
:104C0800AD4B9B681846FBF72BFE02460B469FED03
:104C1800A81B43EC102BFCF7E3F953EC102B2046B0
:104C28002946FBF7BFFC02460B4614461D46A24B1D
:104C3800DB681846FBF714FE02460B469FED9C1BEB
:104C480043EC102BFCF7CCF953EC102B20462946EB
:104C5800FBF7A8FC02460B4643EC172BB0EE470ABD
:104C6800F0EE670AFCF762FA53EC102B104619466F
:104C7800FCF726F90346BB608F4BD3ED006A97ED2E
:104C8800027AC6EE877A8C4BC3ED007A8A4BD3ED55
:104C9800016A97ED027AC6EE877A874BC3ED017AEF
:104CA800854BD3ED026A97ED027AC6EE877A824B7E
:104CB800C3ED027A804BD3ED036A97ED027AC6EE14
:104CC800877A7D4BC3ED037A7B4B93ED027A7A4B5F
:104CD800D3ED037A27EE277A774BD3ED006A764B2C
:104CE800D3ED017A66EEA77A77EE677AB8EE007AA6
:104CF80067EE877A17EE900AFBF7B2FD02460B467D
:104D080043EC102BFCF72CF953EC102B10461946EA
:104D1800FCF7D6F802467B681A60674B93ED017A78
:104D2800654BD3ED027A27EE277A634BD3ED006A01
:104D3800614BD3ED037A66EEA77A77EE277A77EEA2
:104D4800A77A17EE900AFBF78BFD04460D465A4BDF
:104D58001B681846FBF784FD02460B469FED541B63
:104D680043EC102BFCF73CF959EC108B524B5B6869
:104D78001846FBF775FD02460B469FED4D1B43ECAD
:104D8800102BFCF72DF953EC102B40464946FBF746
:104D980007FC02460B4690469946474B9B681846C7
:104DA800FBF75EFD02460B469FED411B43EC102BC3
:104DB800FCF716F953EC102B40464946FBF7F2FB7B
:104DC80002460B46904699463B4BDB681846FBF774
:104DD80047FD02460B469FED361B43EC102BFCF7B4
:104DE800FFF853EC102B40464946FBF7D9FB024627
:104DF8000B4620462946FBF7B5FE02460B4643EC18
:104E0800172BB0EE470AF0EE670AFCF7D1F953EC1E
:104E1800102B10461946FCF753F802467B689A6037
:104E2800254B93ED017A244BD3ED037A27EE277AAD
:104E3800214BD3ED006A204BD3ED027A66EEA77AB8
:104E480077EE277A77EEA77A17EE900AFBF708FD38
:104E580004460D46184B1B681846FBF701FD024631
:104E68000B469FED131B43EC102BFCF7B9F859ECDC
:104E7800108B114B5B681846FBF7F2FC02460B4699
:104E88009FED0B1B43EC102BFCF7AAF853EC102BEF
:104E980040464946FBF784FB02460B469046994636
:104EA800054B9B6818460BE0FA7E6ABC7493783F02
:104EB80000000000000000403801002048030020E6
:104EC800FBF7CEFC02460B469FED211B43EC102B53
:104ED800FCF786F853EC102B40464946FBF760FB7D
:104EE80002460B46904699461B4BDB681846FBF773
:104EF800B7FC02460B469FED161B43EC102BFCF744
:104F08006FF853EC102B40464946FBF74BFB024623
:104F18000B4620462946FBF725FE02460B4643EC86
:104F2800172BB0EE470AF0EE670AFCF741F953EC8D
:104F3800102B10461946FBF7C3FF02467B685A60E0
:104F480000BFB837BD46BDE8B08300BFAFF30080EF
:104F580000000000000000403801002080B58AB041
:104F680000AF0121042000F0CFFC0121022000F055
:104F7800EBFC4FF470733B62022387F82530022361
:104F880087F8243007F120031946324800F01CFB4B
:104F9800022206212F4800F0C0FB022207212D48DB
:104FA80000F0BBFB022208212A4800F0B6FB0222CF
:104FB8000921284800F0B1FB44F61F63BB61C723F1
:104FC800BB820023BB830023FB820023BB7707F14E
:104FD80014031946204800F0F7FC3B46184600F039
:104FE8008FFF60233B800023BB8101237B8000234C
:104FF800BB603B461946184800F092FD0821164848
:1050080000F0A0FF3B461946134800F003FE0821B4
:10501800114800F0B3FF3B4619460F4800F082FEE6
:1050280008210D4800F0C8FF3B4619460A4800F021
:10503800FFFE0821084800F0DBFF0121064800F0C8
:105048002FFD0121044800F04BFD00BF2837BD4665
:1050580080BD00BF000802400004004080B500AFDA
:1050680080216B2000F016F800216B2000F012F868
:105078000121192000F00EF806211A2000F00AF884
:1050880018211B2000F006F800211C2000F002F86F
:1050980000BF80BD80B582B000AF03460A46FB71F1
:1050A8001346BB7101F0B1F9D02001F051FA00BFED
:1050B80001F0E7F90346002BFAD0FB79184601F016
:1050C80047FA00BF01F0DDF90346002BFAD0BB799F
:1050D800184601F03DFA00BF01F0D3F90346002B52
:1050E800FAD001F0B0F900BF0837BD4680BD80B5E1
:1050F80086B000AF786007F108030E2219463B20FE
:1051080000F025F80023FB7519E0FB7D5B001833E0
:105118003B4413F8103C1B029BB2FA7D520001324B
:1051280018323A4412F8102C134499B2FB7D5B00F4
:105138007A6813440AB21A80FB7D0133FB75FB7D44
:10514800062BE2D900BF00BF1837BD4680BD80B529
:1051580082B000AF03463960FB711346BB8001F093
:1051680054F9D02001F0F4F900BF01F08AF90346A0
:10517800002BFAD0FB79184601F0EAF900BF01F0DC
:1051880080F90346002BFAD001F03FF9D12001F055
:10519800DFF900BF01F075F90346002BFAD01BE0D8
:1051A800BB88012B0AD101F009FA03461A463B686D
:1051B8001A7001F0B4F901F046F911E001F0FEF9B6
:1051C80003461A463B681A7001F08BF93B680133B5
:1051D8003B60BB88013BBB80BB88002BE0D100BF94
:1051E80000BF0837BD4680BD80B588B000AF01213B
:1051F800012000F089FB4FF480737B6102237B76EA
:1052080002233B760123FB7607F114031946324843
:1052180000F0DAF9012208212F4800F07EFA2F4B1E
:105228005B6C2E4A43F0010353643B1D184600F0A3
:10523800BDFA3B69FB61FB69294AA2FB03239B0C6E
:105248009BB2284A013B9BB21385264B40F6340299
:10525800DA62244B1B8B9BB2224A43F001039BB2B8
:105268001383204B1B8C9BB21E4A43F001039BB255
:1052780013841C4B9B899BB21A4A43F003039BB2CD
:105288009381184B1B889BB2164A43F001039BB2CB
:1052980013804FF4407000F083F9134B1B78134AC6
:1052A8001B01DBB282F81B33114B1B780F4A1B0121
:1052B800DBB282F819330D4B1B680C4A43F00063CC
:1052C80013600A4B1B68094A43F00073136000BF60
:1052D8002037BD4680BD00BF0000024000380240B4
:1052E80083DE1B43000001404801002000E100E08C
:1052F8004901002080B400AF094B586B094B1B686B
:105308005A1C08490A6081B2074A22F81310044B54
:1053180000225A6200BFBD465DF8047B704700BF9B
:10532800000001407C0300206803002080B400AF27
:10533800094B00221A60094B00225A62074B1B8A4C
:105348009BB2064A23F001039BB2138200BFBD46FD
:105358005DF8047B704700BF7C030020000001401B
:1053680080B586B000AF0121022000F0CDFA0121FE
:10537800102000F009FB07220621164800F0CDF99D
:1053880040233B6102233B7502237B750023BB75D9
:105398000123FB7507F1100319460E4800F014F9B4
:1053A8004FF416533B600023BB800023FB8000238F
:1053B8003B810023BB8108237B813B461946064875
:1053C80000F034FE0121044800F0ECFE00BF18375D
:1053D800BD4680BD000402400010014080B400AF0B
:1053E800094BAA221A70084BFF225A70064B032257
:1053F8009A70054B0722DA70034B01229A7200BF9C
:10540800BD465DF8047B7047800300200000000063
:1054180080B584B000AF4C4BD3ED017A9FED4B7A49
:1054280067EE877A17EE900AFBF71AFA44A3D3E9D6
:105438000023FBF76DFA02460B4610461946FBF7A8
:1054480017FD03467B81404BD3ED007A9FED3F7AF1
:1054580067EE877A17EE900AFBF702FA38A3D3E9CA
:105468000023FBF755FA02460B4610461946FBF790
:10547800FFFC03463B81344BD3ED027A9FED337A30
:1054880067EE877A17EE900AFBF7EAF92CA3D3E9BF
:105498000023FBF73DFA02460B4610461946FBF778
:1054A800E7FC0346FB807B89DAB2294B1A71B7F90E
:1054B8000A301B121BB2DAB2254B5A713B89DAB299
:1054C800234B9A71B7F908301B121BB2DAB2204B82
:1054D800DA71FB88DAB21E4B1A72B7F906301B1262
:1054E8001BB2DAB21A4B5A72194B0022DA72184BF5
:1054F80000221A730023FB6014E0154BDA7A144972
:10550800FB680B441B781344DAB2114BDA72104B68
:105518001A7B0F4BDB7A1344DAB20D4B1A73FB6814
:105528000133FB60FB680A2BE7DD0D21084800F01A
:1055380011F800BF1037BD4680BD00BFAFF3008033
:105548006666666666A64C40300300200000C842C6
:105558008003002080B483B000AF78600B46FB70F6
:1055680011E000BF0D4B1B889BB203F08003002B9A
:10557800F8D07B681A78094B9A807B6801337B6086
:10558800FB78013BFB70FB78002BEAD100BF00BF22
:105598000C37BD465DF8047B704700BF0010014022
:1055A80080B483B000AF7860064A7B6843F0BF637D
:1055B80043F40033D36000BF0C37BD465DF8047B6D
:1055C800704700BF00ED00E080B487B000AF78609E
:1055D800396000237B6100233B610023FB600023CB
:1055E8007B6176E001227B6902FA03F33B613B6849
:1055F8001B683A691340FB60FA683B699A4265D1B7
:105608007B681A687B695B00032101FA03F3DB43BB
:105618001A407B681A607B681A683B681B791946D0
:105628007B695B0001FA03F31A437B681A603B68E5
:105638001B79012B03D03B681B79022B2ED17B6889
:105648009A687B695B00032101FA03F3DB431A4084
:105658007B689A607B689A683B685B7919467B69C6
:105668005B0001FA03F31A437B689A607B685A6807
:105678007B699BB2194601238B40DB431A407B6848
:105688005A607B685B683A68927911467A6992B287
:1056980001FA02F292B21A437B685A607B68DA68B0
:1056A8007B699BB25B00032101FA03F3DB431A40D9
:1056B8007B68DA607B68DA683B68DB7919467B6966
:1056C8005B0001FA03F31A437B68DA607B690133F4
:1056D8007B617B690F2B85D900BF00BF1C37BD4696
:1056E8005DF8047B704780B485B000AF78600B46E6
:1056F8007B800023FB737B681A697B881340002B2F
:1057080002D00123FB7301E00023FB73FB7B1846E7
:105718001437BD465DF8047B704780B485B000AF90
:1057280078600B467B8013467B700023FB60002368
:10573800BB607A787B8803F007039B0002FA03F3C7
:10574800FB607B88DB089BB21A467B68083253F8FB
:1057580022207B8803F007039B000F2101FA03F343
:10576800DB437988C90889B2084602EA03017B68E5
:1057780000F1080243F822107B88DB089BB21A4626
:105788007B68083253F82230FA681343BB607B8881
:10579800DB089BB21A467B680832B96843F82210C6
:1057A80000BF1437BD465DF8047B704780B489B0EC
:1057B80000AF78600023BB6100237B610023FB619D
:1057C80002233B610023FB600223BB604A4B9B68BA
:1057D80003F00C03BB61BB69082B11D0BB69082B14
:1057E80044D8BB69002B03D0BB69042B04D03DE02F
:1057F8007B68424A1A603DE07B68414A1A6039E09A
:105808003D4B5B689B0D03F00103FB603A4B5B6803
:1058180003F03F03BB60FB68002B0CD0384ABB6821
:10582800B2FBF3F3344A52689209C2F3080202FB4E
:1058380003F3FB610BE0314ABB68B2FBF3F32E4A7A
:1058480052689209C2F3080202FB03F3FB612A4B78
:105858005B681B0C03F0030301335B003B61FA69CF
:105868003B69B2FBF3F27B681A6003E07B68234A6A
:105878001A6000BF204B9B6803F0F003BB61BB6953
:105888001B09BB611F4ABB6913441B78DBB27B61F0
:105898007B681A687B69DA407B685A60164B9B689C
:1058A80003F4E053BB61BB699B0ABB61154ABB6942
:1058B80013441B78DBB27B617B685A687B69DA40EA
:1058C8007B689A600C4B9B6803F46043BB61BB69BF
:1058D8005B0BBB610B4ABB6913441B78DBB27B6172
:1058E8007B685A687B69DA407B68DA6000BF2437D6
:1058F800BD465DF8047B7047003802400024F40080
:1059080040787D014C01002080B483B000AF7860FE
:105918000B46FB70FB78002B06D00A4B1A6B094923
:105928007B6813430B6306E0064B1A6B7B68DB430B
:10593800044913400B6300BF0C37BD465DF8047B78
:10594800704700BF0038024080B483B000AF786071
:105958000B46FB70FB78002B06D00A4B1A6C0949E2
:105968007B6813430B6406E0064B1A6C7B68DB43C9
:10597800044913400B6400BF0C37BD465DF8047B37
:10598800704700BF0038024080B483B000AF786031
:105998000B46FB70FB78002B06D00A4B5A6C094962
:1059A8007B6813434B6406E0064B5A6C7B68DB4309
:1059B800044913404B6400BF0C37BD465DF8047BB7
:1059C800704700BF0038024080B485B000AF7860EF
:1059D80039600023FB817B681B88FB817B68294A2F
:1059E800934213D07B68284A93420FD07B68B3F167
:1059F800804F0BD07B68254A934207D07B68244AA6
:105A0800934203D07B68234A934208D1FB8923F051
:105A18007003FB813B685A88FB891343FB817B68D1
:105A28001D4A93420CD07B681C4A934208D0FB89DC
:105A380023F44073FB813B681A89FB891343FB817C
:105A48007B68FA891A803B685A687B68DA623B6827
:105A58001A887B681A857B680A4A934203D07B6858
:105A6800094A934204D13B689B7A1A467B681A8696
:105A78007B6801229A8200BF1437BD465DF8047B1B
:105A8800704700BF000001400004014000040040CE
:105A980000080040000C00400010004000140040C6
:105AA80080B483B000AF78600B46FB70FB78002BA6
:105AB80008D07B681B889BB243F080039AB27B684E
:105AC8001A8007E07B681B889BB223F080039AB298
